{
  "contractName": "Dice",
  "abi": [
    {
      "constant": true,
      "inputs": [
        {
          "internalType": "address",
          "name": "",
          "type": "address"
        }
      ],
      "name": "score",
      "outputs": [
        {
          "internalType": "uint256",
          "name": "",
          "type": "uint256"
        }
      ],
      "payable": false,
      "stateMutability": "view",
      "type": "function"
    },
    {
      "constant": false,
      "inputs": [],
      "name": "roll",
      "outputs": [],
      "payable": false,
      "stateMutability": "nonpayable",
      "type": "function"
    },
    {
      "constant": true,
      "inputs": [],
      "name": "getMyScore",
      "outputs": [
        {
          "internalType": "uint256",
          "name": "",
          "type": "uint256"
        }
      ],
      "payable": false,
      "stateMutability": "view",
      "type": "function"
    }
  ],
  "bytecode": "0x6080604052600060015534801561001557600080fd5b50610224806100256000396000f3fe608060405234801561001057600080fd5b50600436106100415760003560e01c8063776f384314610046578063cd5e3c5d1461009e578063f1599f2c146100a8575b600080fd5b6100886004803603602081101561005c57600080fd5b81019080803573ffffffffffffffffffffffffffffffffffffffff1690602001909291905050506100c6565b6040518082815260200191505060405180910390f35b6100a66100de565b005b6100b06101a9565b6040518082815260200191505060405180910390f35b60006020528060005260406000206000915090505481565b600160008154809291906001019190505550600c4233600154604051602001808481526020018373ffffffffffffffffffffffffffffffffffffffff1673ffffffffffffffffffffffffffffffffffffffff1660601b815260140182815260200193505050506040516020818303038152906040528051906020012060001c8161016457fe5b066000803373ffffffffffffffffffffffffffffffffffffffff1673ffffffffffffffffffffffffffffffffffffffff16815260200190815260200160002081905550565b60008060003373ffffffffffffffffffffffffffffffffffffffff1673ffffffffffffffffffffffffffffffffffffffff1681526020019081526020016000205490509056fea265627a7a72315820bdf805f1c0d6811fbcaacd93e840f56065270613db5a841eadc366efed06ce9764736f6c63430005100032",
  "source": "// SPDX-License-Identifier: GPL-3.0\r\n\r\npragma solidity >=0.4.25 <0.7.0;\r\n\r\n/** \r\n * @title Dice\r\n * @dev Implements logic of 12-sided dice\r\n */\r\ncontract Dice {\r\n   mapping(address => uint) public score;\r\n   uint randNonce = 0; \r\n   \r\n   function roll() external {\r\n    randNonce++;\r\n    score[msg.sender] = uint(keccak256(abi.encodePacked(block.timestamp,  \r\n                                          msg.sender,  \r\n                                          randNonce)))%12;\r\n   }\r\n   \r\n   function getMyScore() external view returns(uint){\r\n       return(score[msg.sender]);\r\n   }\r\n\r\n\r\n}\r\n",
  "sourcePath": "C:/Users/Mikhail/OneDrive - Dnipro University of Technology/Рабочий стол/my_dice/contracts/Dice.sol",
  "compiler": {
    "name": "solc",
    "version": "0.5.16+commit.9c3226ce.Emscripten.clang"
  },
  "schemaVersion": "3.3.3",
  "updatedAt": "2021-03-03T16:00:14.677Z",
  "networkType": "ethereum",
  "devdoc": {
    "details": "Implements logic of 12-sided dice",
    "methods": {},
    "title": "Dice"
  },
  "userdoc": {
    "methods": {}
  }
}